{
  "_format": "hh-sol-artifact-1",
  "contractName": "StudentSocialPlatform",
  "sourceName": "contracts/StudentSocialPlatform.sol",
  "abi": [
    {
      "anonymous": false,
      "inputs": [
        {
          "indexed": true,
          "internalType": "uint256",
          "name": "postId",
          "type": "uint256"
        },
        {
          "indexed": true,
          "internalType": "address",
          "name": "author",
          "type": "address"
        },
        {
          "indexed": false,
          "internalType": "string",
          "name": "content",
          "type": "string"
        },
        {
          "indexed": false,
          "internalType": "uint256",
          "name": "timestamp",
          "type": "uint256"
        }
      ],
      "name": "PostCreated",
      "type": "event"
    },
    {
      "anonymous": false,
      "inputs": [
        {
          "indexed": true,
          "internalType": "uint256",
          "name": "postId",
          "type": "uint256"
        },
        {
          "indexed": true,
          "internalType": "address",
          "name": "voter",
          "type": "address"
        },
        {
          "indexed": true,
          "internalType": "address",
          "name": "postAuthor",
          "type": "address"
        },
        {
          "indexed": false,
          "internalType": "int8",
          "name": "voteType",
          "type": "int8"
        },
        {
          "indexed": false,
          "internalType": "int256",
          "name": "newVoteScore",
          "type": "int256"
        },
        {
          "indexed": false,
          "internalType": "int256",
          "name": "newAuthorReputation",
          "type": "int256"
        }
      ],
      "name": "Voted",
      "type": "event"
    },
    {
      "inputs": [
        {
          "internalType": "string",
          "name": "_content",
          "type": "string"
        }
      ],
      "name": "createPost",
      "outputs": [],
      "stateMutability": "nonpayable",
      "type": "function"
    },
    {
      "inputs": [
        {
          "internalType": "uint256",
          "name": "_postId",
          "type": "uint256"
        }
      ],
      "name": "downvote",
      "outputs": [],
      "stateMutability": "nonpayable",
      "type": "function"
    },
    {
      "inputs": [
        {
          "internalType": "uint256",
          "name": "_postId",
          "type": "uint256"
        }
      ],
      "name": "getPost",
      "outputs": [
        {
          "internalType": "uint256",
          "name": "id",
          "type": "uint256"
        },
        {
          "internalType": "address",
          "name": "author",
          "type": "address"
        },
        {
          "internalType": "string",
          "name": "content",
          "type": "string"
        },
        {
          "internalType": "uint256",
          "name": "timestamp",
          "type": "uint256"
        },
        {
          "internalType": "int256",
          "name": "voteScore",
          "type": "int256"
        }
      ],
      "stateMutability": "view",
      "type": "function"
    },
    {
      "inputs": [
        {
          "internalType": "address",
          "name": "_user",
          "type": "address"
        }
      ],
      "name": "getReputation",
      "outputs": [
        {
          "internalType": "int256",
          "name": "",
          "type": "int256"
        }
      ],
      "stateMutability": "view",
      "type": "function"
    },
    {
      "inputs": [],
      "name": "getTotalPosts",
      "outputs": [
        {
          "internalType": "uint256",
          "name": "",
          "type": "uint256"
        }
      ],
      "stateMutability": "view",
      "type": "function"
    },
    {
      "inputs": [
        {
          "internalType": "uint256",
          "name": "_postId",
          "type": "uint256"
        },
        {
          "internalType": "address",
          "name": "_user",
          "type": "address"
        }
      ],
      "name": "getVote",
      "outputs": [
        {
          "internalType": "int8",
          "name": "",
          "type": "int8"
        }
      ],
      "stateMutability": "view",
      "type": "function"
    },
    {
      "inputs": [],
      "name": "postCount",
      "outputs": [
        {
          "internalType": "uint256",
          "name": "",
          "type": "uint256"
        }
      ],
      "stateMutability": "view",
      "type": "function"
    },
    {
      "inputs": [
        {
          "internalType": "uint256",
          "name": "",
          "type": "uint256"
        }
      ],
      "name": "posts",
      "outputs": [
        {
          "internalType": "uint256",
          "name": "id",
          "type": "uint256"
        },
        {
          "internalType": "address",
          "name": "author",
          "type": "address"
        },
        {
          "internalType": "string",
          "name": "content",
          "type": "string"
        },
        {
          "internalType": "uint256",
          "name": "timestamp",
          "type": "uint256"
        },
        {
          "internalType": "int256",
          "name": "voteScore",
          "type": "int256"
        },
        {
          "internalType": "bool",
          "name": "exists",
          "type": "bool"
        }
      ],
      "stateMutability": "view",
      "type": "function"
    },
    {
      "inputs": [
        {
          "internalType": "address",
          "name": "",
          "type": "address"
        }
      ],
      "name": "reputation",
      "outputs": [
        {
          "internalType": "int256",
          "name": "",
          "type": "int256"
        }
      ],
      "stateMutability": "view",
      "type": "function"
    },
    {
      "inputs": [
        {
          "internalType": "uint256",
          "name": "_postId",
          "type": "uint256"
        }
      ],
      "name": "upvote",
      "outputs": [],
      "stateMutability": "nonpayable",
      "type": "function"
    },
    {
      "inputs": [
        {
          "internalType": "uint256",
          "name": "",
          "type": "uint256"
        },
        {
          "internalType": "address",
          "name": "",
          "type": "address"
        }
      ],
      "name": "votes",
      "outputs": [
        {
          "internalType": "int8",
          "name": "",
          "type": "int8"
        }
      ],
      "stateMutability": "view",
      "type": "function"
    }
  ],
  "bytecode": "0x608060405234801561001057600080fd5b50611edf806100206000396000f3fe608060405234801561001057600080fd5b50600436106100a95760003560e01c80639c89a0e2116100715780639c89a0e21461016f578063b9f794511461019f578063bc3f931f146101cf578063c7303c61146101ff578063d23254b41461021b578063f31fdad41461024b576100a9565b806301ddf070146100ae5780630b1e7f83146100ca57806317906c2e146100ff57806340731c241461011d5780635fe226b414610151575b600080fd5b6100c860048036038101906100c39190611284565b610267565b005b6100e460048036038101906100df9190611284565b61074f565b6040516100f6969594939291906113c5565b60405180910390f35b610107610840565b604051610114919061142d565b60405180910390f35b61013760048036038101906101329190611284565b610846565b604051610148959493929190611448565b60405180910390f35b610159610a21565b604051610166919061142d565b60405180910390f35b610189600480360381019061018491906114ce565b610a2a565b60405161019691906114fb565b60405180910390f35b6101b960048036038101906101b491906114ce565b610a73565b6040516101c691906114fb565b60405180910390f35b6101e960048036038101906101e49190611516565b610a8b565b6040516101f69190611572565b60405180910390f35b610219600480360381019061021491906116c2565b610af3565b005b61023560048036038101906102309190611516565b610ce5565b6040516102429190611572565b60405180910390f35b61026560048036038101906102609190611284565b610d14565b005b6001600082815260200190815260200160002060050160009054906101000a900460ff166102ca576040517f08c379a00000000000000000000000000000000000000000000000000000000081526004016102c190611757565b60405180910390fd5b3373ffffffffffffffffffffffffffffffffffffffff166001600083815260200190815260200160002060010160009054906101000a900473ffffffffffffffffffffffffffffffffffffffff1673ffffffffffffffffffffffffffffffffffffffff160361036e576040517f08c379a0000000000000000000000000000000000000000000000000000000008152600401610365906117c3565b60405180910390fd5b60016003600083815260200190815260200160002060003373ffffffffffffffffffffffffffffffffffffffff1673ffffffffffffffffffffffffffffffffffffffff16815260200190815260200160002060009054906101000a900460000b60000b03610411576040517f08c379a00000000000000000000000000000000000000000000000000000000081526004016104089061182f565b60405180910390fd5b600060016000838152602001908152602001600020905060006003600084815260200190815260200160002060003373ffffffffffffffffffffffffffffffffffffffff1673ffffffffffffffffffffffffffffffffffffffff16815260200190815260200160002060009054906101000a900460000b905060016003600085815260200190815260200160002060003373ffffffffffffffffffffffffffffffffffffffff1673ffffffffffffffffffffffffffffffffffffffff16815260200190815260200160002060006101000a81548160ff021916908360000b60ff1602179055507fffffffffffffffffffffffffffffffffffffffffffffffffffffffffffffffff8160000b036105bc576002826004016000828254610536919061187e565b9250508190555060028060008460010160009054906101000a900473ffffffffffffffffffffffffffffffffffffffff1673ffffffffffffffffffffffffffffffffffffffff1673ffffffffffffffffffffffffffffffffffffffff16815260200190815260200160002060008282546105b0919061187e565b92505081905550610654565b60018260040160008282546105d1919061187e565b925050819055506001600260008460010160009054906101000a900473ffffffffffffffffffffffffffffffffffffffff1673ffffffffffffffffffffffffffffffffffffffff1673ffffffffffffffffffffffffffffffffffffffff168152602001908152602001600020600082825461064c919061187e565b925050819055505b8160010160009054906101000a900473ffffffffffffffffffffffffffffffffffffffff1673ffffffffffffffffffffffffffffffffffffffff163373ffffffffffffffffffffffffffffffffffffffff16847f7b3597cf007c618675e7147ad9afc60175aa75ef274737d3280b473749caa27160018660040154600260008960010160009054906101000a900473ffffffffffffffffffffffffffffffffffffffff1673ffffffffffffffffffffffffffffffffffffffff1673ffffffffffffffffffffffffffffffffffffffff1681526020019081526020016000205460405161074293929190611907565b60405180910390a4505050565b60016020528060005260406000206000915090508060000154908060010160009054906101000a900473ffffffffffffffffffffffffffffffffffffffff169080600201805461079e9061196d565b80601f01602080910402602001604051908101604052809291908181526020018280546107ca9061196d565b80156108175780601f106107ec57610100808354040283529160200191610817565b820191906000526020600020905b8154815290600101906020018083116107fa57829003601f168201915b5050505050908060030154908060040154908060050160009054906101000a900460ff16905086565b60005481565b60008060606000806001600087815260200190815260200160002060050160009054906101000a900460ff166108b1576040517f08c379a00000000000000000000000000000000000000000000000000000000081526004016108a890611757565b60405180910390fd5b6000600160008881526020019081526020016000206040518060c0016040529081600082015481526020016001820160009054906101000a900473ffffffffffffffffffffffffffffffffffffffff1673ffffffffffffffffffffffffffffffffffffffff1673ffffffffffffffffffffffffffffffffffffffff1681526020016002820180546109419061196d565b80601f016020809104026020016040519081016040528092919081815260200182805461096d9061196d565b80156109ba5780601f1061098f576101008083540402835291602001916109ba565b820191906000526020600020905b81548152906001019060200180831161099d57829003601f168201915b5050505050815260200160038201548152602001600482015481526020016005820160009054906101000a900460ff161515151581525050905080600001518160200151826040015183606001518460800151955095509550955095505091939590929450565b60008054905090565b6000600260008373ffffffffffffffffffffffffffffffffffffffff1673ffffffffffffffffffffffffffffffffffffffff168152602001908152602001600020549050919050565b60026020528060005260406000206000915090505481565b60006003600084815260200190815260200160002060008373ffffffffffffffffffffffffffffffffffffffff1673ffffffffffffffffffffffffffffffffffffffff16815260200190815260200160002060009054906101000a900460000b905092915050565b6000815111610b37576040517f08c379a0000000000000000000000000000000000000000000000000000000008152600401610b2e906119ea565b60405180910390fd5b6103e881511115610b7d576040517f08c379a0000000000000000000000000000000000000000000000000000000008152600401610b7490611a7c565b60405180910390fd5b600080815480929190610b8f90611a9c565b91905055506040518060c0016040528060005481526020013373ffffffffffffffffffffffffffffffffffffffff168152602001828152602001428152602001600081526020016001151581525060016000805481526020019081526020016000206000820151816000015560208201518160010160006101000a81548173ffffffffffffffffffffffffffffffffffffffff021916908373ffffffffffffffffffffffffffffffffffffffff1602179055506040820151816002019081610c579190611c86565b50606082015181600301556080820151816004015560a08201518160050160006101000a81548160ff0219169083151502179055509050503373ffffffffffffffffffffffffffffffffffffffff166000547f285db98a4632176385795ddf0d2b67cef1a21f47eb2f5d06f786ab6b5147e2008342604051610cda929190611d58565b60405180910390a350565b60036020528160005260406000206020528060005260406000206000915091509054906101000a900460000b81565b6001600082815260200190815260200160002060050160009054906101000a900460ff16610d77576040517f08c379a0000000000000000000000000000000000000000000000000000000008152600401610d6e90611757565b60405180910390fd5b3373ffffffffffffffffffffffffffffffffffffffff166001600083815260200190815260200160002060010160009054906101000a900473ffffffffffffffffffffffffffffffffffffffff1673ffffffffffffffffffffffffffffffffffffffff1603610e1b576040517f08c379a0000000000000000000000000000000000000000000000000000000008152600401610e12906117c3565b60405180910390fd5b7fffffffffffffffffffffffffffffffffffffffffffffffffffffffffffffffff6003600083815260200190815260200160002060003373ffffffffffffffffffffffffffffffffffffffff1673ffffffffffffffffffffffffffffffffffffffff16815260200190815260200160002060009054906101000a900460000b60000b03610edd576040517f08c379a0000000000000000000000000000000000000000000000000000000008152600401610ed490611dd4565b60405180910390fd5b600060016000838152602001908152602001600020905060006003600084815260200190815260200160002060003373ffffffffffffffffffffffffffffffffffffffff1673ffffffffffffffffffffffffffffffffffffffff16815260200190815260200160002060009054906101000a900460000b90507fffffffffffffffffffffffffffffffffffffffffffffffffffffffffffffffff6003600085815260200190815260200160002060003373ffffffffffffffffffffffffffffffffffffffff1673ffffffffffffffffffffffffffffffffffffffff16815260200190815260200160002060006101000a81548160ff021916908360000b60ff16021790555060018160000b036110885760028260040160008282546110029190611df4565b9250508190555060028060008460010160009054906101000a900473ffffffffffffffffffffffffffffffffffffffff1673ffffffffffffffffffffffffffffffffffffffff1673ffffffffffffffffffffffffffffffffffffffff168152602001908152602001600020600082825461107c9190611df4565b92505081905550611120565b600182600401600082825461109d9190611df4565b925050819055506001600260008460010160009054906101000a900473ffffffffffffffffffffffffffffffffffffffff1673ffffffffffffffffffffffffffffffffffffffff1673ffffffffffffffffffffffffffffffffffffffff16815260200190815260200160002060008282546111189190611df4565b925050819055505b8160010160009054906101000a900473ffffffffffffffffffffffffffffffffffffffff1673ffffffffffffffffffffffffffffffffffffffff163373ffffffffffffffffffffffffffffffffffffffff16847f7b3597cf007c618675e7147ad9afc60175aa75ef274737d3280b473749caa2717fffffffffffffffffffffffffffffffffffffffffffffffffffffffffffffffff8660040154600260008960010160009054906101000a900473ffffffffffffffffffffffffffffffffffffffff1673ffffffffffffffffffffffffffffffffffffffff1673ffffffffffffffffffffffffffffffffffffffff1681526020019081526020016000205460405161122d93929190611e72565b60405180910390a4505050565b6000604051905090565b600080fd5b600080fd5b6000819050919050565b6112618161124e565b811461126c57600080fd5b50565b60008135905061127e81611258565b92915050565b60006020828403121561129a57611299611244565b5b60006112a88482850161126f565b91505092915050565b6112ba8161124e565b82525050565b600073ffffffffffffffffffffffffffffffffffffffff82169050919050565b60006112eb826112c0565b9050919050565b6112fb816112e0565b82525050565b600081519050919050565b600082825260208201905092915050565b60005b8381101561133b578082015181840152602081019050611320565b60008484015250505050565b6000601f19601f8301169050919050565b600061136382611301565b61136d818561130c565b935061137d81856020860161131d565b61138681611347565b840191505092915050565b6000819050919050565b6113a481611391565b82525050565b60008115159050919050565b6113bf816113aa565b82525050565b600060c0820190506113da60008301896112b1565b6113e760208301886112f2565b81810360408301526113f98187611358565b905061140860608301866112b1565b611415608083018561139b565b61142260a08301846113b6565b979650505050505050565b600060208201905061144260008301846112b1565b92915050565b600060a08201905061145d60008301886112b1565b61146a60208301876112f2565b818103604083015261147c8186611358565b905061148b60608301856112b1565b611498608083018461139b565b9695505050505050565b6114ab816112e0565b81146114b657600080fd5b50565b6000813590506114c8816114a2565b92915050565b6000602082840312156114e4576114e3611244565b5b60006114f2848285016114b9565b91505092915050565b6000602082019050611510600083018461139b565b92915050565b6000806040838503121561152d5761152c611244565b5b600061153b8582860161126f565b925050602061154c858286016114b9565b9150509250929050565b60008160000b9050919050565b61156c81611556565b82525050565b60006020820190506115876000830184611563565b92915050565b600080fd5b600080fd5b7f4e487b7100000000000000000000000000000000000000000000000000000000600052604160045260246000fd5b6115cf82611347565b810181811067ffffffffffffffff821117156115ee576115ed611597565b5b80604052505050565b600061160161123a565b905061160d82826115c6565b919050565b600067ffffffffffffffff82111561162d5761162c611597565b5b61163682611347565b9050602081019050919050565b82818337600083830152505050565b600061166561166084611612565b6115f7565b90508281526020810184848401111561168157611680611592565b5b61168c848285611643565b509392505050565b600082601f8301126116a9576116a861158d565b5b81356116b9848260208601611652565b91505092915050565b6000602082840312156116d8576116d7611244565b5b600082013567ffffffffffffffff8111156116f6576116f5611249565b5b61170284828501611694565b91505092915050565b7f506f737420646f6573206e6f7420657869737400000000000000000000000000600082015250565b600061174160138361130c565b915061174c8261170b565b602082019050919050565b6000602082019050818103600083015261177081611734565b9050919050565b7f43616e6e6f7420766f7465206f6e20796f7572206f776e20706f737400000000600082015250565b60006117ad601c8361130c565b91506117b882611777565b602082019050919050565b600060208201905081810360008301526117dc816117a0565b9050919050565b7f416c7265616479207570766f746564207468697320706f737400000000000000600082015250565b600061181960198361130c565b9150611824826117e3565b602082019050919050565b600060208201905081810360008301526118488161180c565b9050919050565b7f4e487b7100000000000000000000000000000000000000000000000000000000600052601160045260246000fd5b600061188982611391565b915061189483611391565b9250828201905082811215600083121683821260008412151617156118bc576118bb61184f565b5b92915050565b6000819050919050565b6000819050919050565b60006118f16118ec6118e7846118c2565b6118cc565b611556565b9050919050565b611901816118d6565b82525050565b600060608201905061191c60008301866118f8565b611929602083018561139b565b611936604083018461139b565b949350505050565b7f4e487b7100000000000000000000000000000000000000000000000000000000600052602260045260246000fd5b6000600282049050600182168061198557607f821691505b6020821081036119985761199761193e565b5b50919050565b7f506f737420636f6e74656e742063616e6e6f7420626520656d70747900000000600082015250565b60006119d4601c8361130c565b91506119df8261199e565b602082019050919050565b60006020820190508181036000830152611a03816119c7565b9050919050565b7f506f737420636f6e74656e7420746f6f206c6f6e6720286d617820313030302060008201527f6368617273290000000000000000000000000000000000000000000000000000602082015250565b6000611a6660268361130c565b9150611a7182611a0a565b604082019050919050565b60006020820190508181036000830152611a9581611a59565b9050919050565b6000611aa78261124e565b91507fffffffffffffffffffffffffffffffffffffffffffffffffffffffffffffffff8203611ad957611ad861184f565b5b600182019050919050565b60008190508160005260206000209050919050565b60006020601f8301049050919050565b600082821b905092915050565b600060088302611b467fffffffffffffffffffffffffffffffffffffffffffffffffffffffffffffffff82611b09565b611b508683611b09565b95508019841693508086168417925050509392505050565b6000611b83611b7e611b798461124e565b6118cc565b61124e565b9050919050565b6000819050919050565b611b9d83611b68565b611bb1611ba982611b8a565b848454611b16565b825550505050565b600090565b611bc6611bb9565b611bd1818484611b94565b505050565b5b81811015611bf557611bea600082611bbe565b600181019050611bd7565b5050565b601f821115611c3a57611c0b81611ae4565b611c1484611af9565b81016020851015611c23578190505b611c37611c2f85611af9565b830182611bd6565b50505b505050565b600082821c905092915050565b6000611c5d60001984600802611c3f565b1980831691505092915050565b6000611c768383611c4c565b9150826002028217905092915050565b611c8f82611301565b67ffffffffffffffff811115611ca857611ca7611597565b5b611cb2825461196d565b611cbd828285611bf9565b600060209050601f831160018114611cf05760008415611cde578287015190505b611ce88582611c6a565b865550611d50565b601f198416611cfe86611ae4565b60005b82811015611d2657848901518255600182019150602085019450602081019050611d01565b86831015611d435784890151611d3f601f891682611c4c565b8355505b6001600288020188555050505b505050505050565b60006040820190508181036000830152611d728185611358565b9050611d8160208301846112b1565b9392505050565b7f416c726561647920646f776e766f746564207468697320706f73740000000000600082015250565b6000611dbe601b8361130c565b9150611dc982611d88565b602082019050919050565b60006020820190508181036000830152611ded81611db1565b9050919050565b6000611dff82611391565b9150611e0a83611391565b9250828203905081811260008412168282136000851215161715611e3157611e3061184f565b5b92915050565b6000819050919050565b6000611e5c611e57611e5284611e37565b6118cc565b611556565b9050919050565b611e6c81611e41565b82525050565b6000606082019050611e876000830186611e63565b611e94602083018561139b565b611ea1604083018461139b565b94935050505056fea26469706673582212207c49e2743f806df74672a4b228cb7bb7d2ad5d8c1fe880e3b2bb4a5f7d4266ff64736f6c63430008140033",
  "linkReferences": {},
  "deployedLinkReferences": {}
}